:100000000C942A000C9483040C94AC040C94D60435
:100010000C9447000C9447000C947A050C94280526
:100020000C9451050C94FF040C9447000C94470069
:100030000C9447000C9447000C9447000C94470024
:100040000C9447000C9447000C9447000C94470014
:100050000C94470011241FBECFE5D8E0DEBFCDBF12
:1000600010E0A0E6B0E0E0E2FCE002C005900D92F6
:10007000AC39B107D9F720E0ACE9B0E001C01D927E
:10008000AA3AB207E1F70E941A020C940E060C94E9
:100090000000CF93CCE061E08C2F0E940903CF5F7A
:1000A000C031C9F7CF910895DF92EF92FF920F937D
:1000B0001F93CF93DF9390E6E92E90E0F92ECCE0EA
:1000C000D4E560E08C2F0E94090300E010E08AE193
:1000D000D82ED00E8D2D0E948803811115C0F701F6
:1000E000E00FF11FD0818FE19EE40197F1F700C08E
:1000F00000008D2D0E9488038823D9F38FE19EE4B0
:100100000197F1F700C000000F5F1F4F0430110589
:10011000F1F661E08C2F0E940903CF5F94E0E90EB5
:10012000F11CC03171F68D2FDF91CF911F910F918E
:10013000FF90EF90DF900895CF93C82F60E088E1A3
:100140000E9409036C2F661F6627661F87E10E94C5
:100150000903C6FB662760F986E10E940903C5FB17
:10016000662760F985E10E940903C4FB662760F9F0
:1001700084E10E94090361E089E10E9409038FEC98
:1001800097E00197F1F700C0000060E089E10E946C
:1001900009038FEC97E00197F1F700C00000C3FB63
:1001A000662760F987E10E940903C2FB662760F9B0
:1001B00086E10E940903C1FB662760F985E10E9480
:1001C00009036C2F617084E10E94090361E089E1F9
:1001D0000E9409038FEC97E00197F1F700C000003F
:1001E00060E089E10E9409038FEC97E00197F1F745
:1001F00000C00000CF910895CF93C82F61E088E13F
:100200000E9409036C2F661F6627661F87E10E9404
:100210000903C6FB662760F986E10E940903C5FB56
:10022000662760F985E10E940903C4FB662760F92F
:1002300084E10E94090361E089E10E9409038FECD7
:1002400097E00197F1F700C0000060E089E10E94AB
:1002500009038FEC97E00197F1F700C00000C3FBA2
:10026000662760F987E10E940903C2FB662760F9EF
:1002700086E10E940903C1FB662760F985E10E94BF
:1002800009036C2F617084E10E94090361E089E138
:100290000E9409038FEC97E00197F1F700C000007E
:1002A00060E089E10E9409038FEC97E00197F1F784
:1002B00000C00000CF9108952FE788E391E021501E
:1002C00080409040E1F700C0000082E00E949C0066
:1002D00088E20E949C008CE00E949C0081E00E94C9
:1002E0009C008FEC97E00197F1F700C0000086E0DA
:1002F0000C949C00811102C080E803C0813021F47D
:1003000080EC860F0C949C0008950C94FC000F93D5
:100310001F93CF938C01C0E0F801EC0FF11D808199
:10032000882321F00E94FC00CF5FF6CFCF911F9170
:100330000F9108954F925F926F927F92AF92BF920A
:10034000CF92DF92EF92FF921F93CF93DF93CDB7BF
:10035000DEB764970FB6F894DEBF0FBECDBF6B015A
:100360007C01611571058105910529F480E30E94E6
:10037000FC0010E02BC097FF0BC08DE20E94FC0038
:10038000F094E094D094C094C11CD11CE11CF11CE9
:1003900010E09AE0492E512C612C712CAA24A394D0
:1003A000B12CAC0EBD1EA10EB11CC701B601A3013C
:1003B00092010E94D505605DF50160831F5F6901B0
:1003C0007A01C114D104E104F10441F7115017FD81
:1003D0000CC0E1E0F0E0EC0FFD1FE10FF11D17FD97
:1003E000FA9580810E94FC00F1CF64960FB6F894D4
:1003F000DEBF0FBECDBFDF91CF911F91FF90EF9079
:10040000DF90CF90BF90AF907F906F905F904F90B4
:100410000895CF93DF93D42F0E947A01C0E0CD17C7
:1004200029F080E20E94FC00CF5FF9CFDF91CF91ED
:10043000089508950E94A5030E9419020E945C017C
:100440000E944900412C512C3201812C912C5401E5
:10045000C12CD12C7601312C00E010E0212CD0E011
:100460000E945400C82F8435D9F3833479F44FE0C7
:1004700060E080E00E9409024FE060E081E00E94BD
:10048000090260E080E00E947A0100E080ED8C0FBC
:100490008A3050F521102BC031100CC060E080E094
:1004A0000E947A0183E990E00E94870160E080E089
:1004B0000E947A01AAE0B0E0A70196010E9403061B
:1004C0002C2F30E0690140E3C41AD1080D2C000C38
:1004D000EE08FF08C60ED71EE81EF91E8C2F0E94DC
:1004E00085013324339473C0CB3209F46DC09C2F43
:1004F0009D7F9D3211F0CA3251F4111108C08C2F2A
:100500000E948501DC2F10E0222423941BC08A3036
:10051000C8F4AAE0B0E0A50194010E9403062C2FC4
:1005200030E0490140E3841A9108092C000CAA0824
:10053000BB08860E971EA81EB91E8C2F0E9485012F
:1005400011E045C0CD3309F042C0DB32C9F058F4A8
:10055000DA3219F5A7019601C501B4010E94A3057D
:100560002B013C011AC0DD3291F0DF32B1F4C7013A
:10057000B601A50194010E94D50529013A010DC0DB
:1005800026013701480C591C6A1C7B1C06C0260139
:100590003701481859086A087B0860E081E00E942A
:1005A0007A01C301B2010E949A0183E990E00E949E
:1005B0008701812C912C5401C12CD12C7601312C36
:1005C00001E010E0212C4CCF112309F498CF013029
:1005D00009F046CF8C2F8D7F8D3229F086ED8C0F60
:1005E000823008F03DCF60E080E00E947A0180E92F
:1005F00090E00E94870160E080E00E947A01C301E0
:10060000B2010E949A018C2F0E9485017301620140
:1006100027CF982F96959695969587706130C1F55E
:10062000913091F028F09230D9F0933029F108956B
:100630004BB321E030E0B90102C0660F771F8A9505
:10064000E2F7CB01842B38C048B321E030E0B90198
:1006500002C0660F771F8A95E2F7CB01842B3AC060
:1006600045B321E030E0B90102C0660F771F8A95DB
:10067000E2F7CB01842B3CC042B321E030E0B9016A
:1006800002C0660F771F8A95E2F7CB01842B3EC02C
:100690009130A1F028F09230F9F0933059F108959B
:1006A0004BB321E030E0B90102C0660F771F8A9595
:1006B000E2F7CB01809584238BBB089548B321E0FA
:1006C00030E0B90102C0660F771F8A95E2F7CB01CF
:1006D0008095842388BB089545B321E030E0B901BB
:1006E00002C0660F771F8A95E2F7CB0180958423BD
:1006F00085BB089542B321E030E0B90102C0660F26
:10070000771F8A95E2F7CB018095842382BB0895F9
:10071000282F2770869586958695813049F030F090
:10072000823041F0833079F480B305C089B303C0CF
:1007300086B301C083B390E002C0959587952A9552
:10074000E2F78170089580E00895E0E7F0E040E08E
:1007500081E090E05191342F369536953695242FCF
:100760002770513009F443C020F0523009F482C0A0
:10077000C5C0323001F1333061F1313071F05AB31C
:10078000BC0102C0660F771F2A95E2F79B01352F47
:10079000322B3ABB3BB320953DC057B3BC0102C0DE
:1007A000660F771F2A95E2F79B01352F322B37BB57
:1007B00038B320953EC054B3BC0102C0660F771F0A
:1007C0002A95E2F79B01352F322B34BB35B32095A8
:1007D0003FC051B3BC0102C0660F771F2A95E2F7F4
:1007E0009B01352F322B31BB32B3209541C03230C3
:1007F00011F1333081F1313079F05AB3BC0102C0CC
:10080000660F771F2A95E2F79B012095352F32233B
:100810003ABB3BB3232342C057B3BC0102C0660FAF
:10082000771F2A95E2F79B012095352F322337BB9E
:1008300038B3232343C054B3BC0102C0660F771FF3
:100840002A95E2F79B012095352F322334BB35B32F
:10085000232325BB53C051B3BC0102C0660F771FD1
:100860002A95E2F79B012095352F322331BB32B315
:10087000232343C0323021F1333089F1313081F00C
:100880005AB3BC0102C0660F771F2A95E2F79B019D
:10089000362F309535233ABB3BB3232B2BBB2EC0D1
:1008A00057B3BC0102C0660F771F2A95E2F79B0180
:1008B000362F3095352337BB38B3232B28BB1EC0CA
:1008C00054B3BC0102C0660F771F2A95E2F79B0163
:1008D000362F3095352334BB35B3232BBACF51B3E4
:1008E000BC0102C0660F771F2A95E2F79B01362FE5
:1008F0003095352331BB32B3232B22BB4F5F4032BF
:1009000009F028CF08951F920F920FB60F9211246D
:100910002F933F934F935F936F937F938F939F9307
:10092000AF93BF93EF93FF93E091A000F091A100EC
:10093000309709F00995FF91EF91BF91AF919F9189
:100940008F917F916F915F914F913F912F910F9078
:100950000FBE0F901F90189578941F920F920FB6AC
:100960000F9211242F933F934F935F936F937F9335
:100970008F939F93AF93BF93EF93FF93E0919E006C
:10098000F0919F00309709F00995FF91EF91BF9189
:10099000AF919F918F917F916F915F914F913F9117
:1009A0002F910F900FBE0F901F9018951F920F92CE
:1009B0000FB60F9211242F933F934F935F936F9332
:1009C0007F938F939F93AF93BF93EF93FF93E091A8
:1009D0009C00F0919D00309709F00995FF91EF91EF
:1009E000BF91AF919F918F917F916F915F914F9147
:1009F0003F912F910F900FBE0F901F9018951F924F
:100A00000F920FB60F9211242F933F934F935F9342
:100A10006F937F938F939F93AF93BF93EF93FF93C6
:100A2000E091A800F091A900309709F00995FF9195
:100A3000EF91BF91AF919F918F917F916F915F9156
:100A40004F913F912F910F900FBE0F901F901895CF
:100A50001F920F920FB60F9211242F933F934F9333
:100A60005F936F937F938F939F93AF93BF93EF9316
:100A7000FF93E091A600F091A700309709F0099547
:100A8000FF91EF91BF91AF919F918F917F916F9166
:100A90005F914F913F912F910F900FBE0F901F903C
:100AA00018951F920F920FB60F9211242F933F9318
:100AB0004F935F936F937F938F939F93AF93BF9366
:100AC000EF93FF93E091A400F091A500309709F017
:100AD0000995FF91EF91BF91AF919F918F917F9178
:100AE0006F915F914F913F912F910F900FBE0F909B
:100AF0001F9018951F920F920FB60F9211242F93EB
:100B00003F934F935F936F937F938F939F93AF9395
:100B1000BF93EF93FF93E091A200F091A300309771
:100B200009F00995FF91EF91BF91AF919F918F913E
:100B30007F916F915F914F913F912F910F900FBED9
:100B40000F901F901895DB018F939F930E940306CF
:100B5000BF91AF91A29F800D911DA39F900DB29F59
:100B6000900D11240895A1E21A2EAA1BBB1BFD01B2
:100B70000DC0AA1FBB1FEE1FFF1FA217B307E4077C
:100B8000F50720F0A21BB30BE40BF50B661F771FD4
:100B9000881F991F1A9469F76095709580959095B4
:100BA0009B01AC01BD01CF010895052E97FB1EF4FA
:100BB00000940E94EC0557FD07D00E94B30507FC86
:100BC00003D04EF40C94EC0550954095309521954A
:100BD0003F4F4F4F5F4F0895909580957095619569
:100BE0007F4F8F4F9F4F0895A29FB001B39FC001C9
:100BF000A39F700D811D1124911DB29F700D811D49
:100C00001124911D08950E94F405A59F900DB49F95
:100C1000900DA49F800D911D11240895F894FFCF8D
:100C20003738392F3435362A3132332D43303D2B86
:100C300001010101000000000000000000000000B0
:100C4000000000000000000000000202020200009C
:0C0C500020202020202020202020000058
:00000001FF
